:02000002B0004C
:1040000000400B00A6A60B00000006000C000502F5
:084010000401B41400000000DB
:044018009C900B006D
:1040200081F0004102E000BF83F0004330B54FEA69
:1040300041044FEA430594EA050F08BF90EA020FD6
:104040001FBF54EA000C55EA020C7FEA645C7FEA69
:10405000655C00F0E2804FEA5454D4EB5555B8BF8C
:104060006D420CDD2C4480EA020281EA030382EAFD
:10407000000083EA010180EA020281EA0303362D8F
:1040800088BF30BD11F0004F4FEA01314FF4801C62
:104090004CEA113102D0404261EB410113F0004F74
:1040A0004FEA03334CEA133302D0524263EB43032B
:1040B00094EA050F00F0A780A4F10104D5F1200EC9
:1040C0000DDB02FA0EFC22FA05F2801841F1000124
:1040D00003FA0EF2801843FA05F359410EE0A5F1F8
:1040E00020050EF1200E012A03FA0EFC28BF4CF029
:1040F000020C43FA05F3C01851EBE37101F00045DF
:1041000007D54FF0000EDCF1000C7EEB00006EEBEB
:104110000101B1F5801F1BD3B1F5001F0CD3490875
:104120005FEA30004FEA3C0C04F101044FEA4452CC
:1041300012F5800F80F09A80BCF1004F08BF5FEA53
:10414000500C50F1000041EB045141EA050130BD33
:104150005FEA4C0C404141EB0101013C28BFB1F545
:10416000801FE9D291F0000F04BF01460020B1FA90
:1041700081F308BF2033A3F10B03B3F120020CDA63
:104180000C3208DD02F1140CC2F10C0201FA0CF041
:1041900021FA02F10CE002F11402D8BFC2F1200CA6
:1041A00001FA02F120FA0CFCDCBF41EA0C0190405C
:1041B000E41AA2BF01EB0451294330BD6FEA0404A5
:1041C0001F3C1CDA0C340EDC04F11404C4F1200290
:1041D00020FA04F001FA02F340EA030021FA04F3A2
:1041E00045EA030130BDC4F10C04C4F1200220FAF9
:1041F00002F001FA04F340EA0300294630BD21FA37
:1042000004F0294630BD94F0000F83F4801306BFFC
:1042100081F480110134013D4EE77FEA645C18BFF0
:104220007FEA655C29D094EA050F08BF90EA020F87
:1042300005D054EA000C04BF1946104630BD91EA7F
:10424000030F1EBF0021002030BD5FEA545C05D182
:104250004000494128BF41F0004130BD14F58004C1
:104260003CBF01F5801130BD01F0004545F0FE4135
:1042700041F470014FF0000030BD7FEA645C1ABF6A
:10428000194610467FEA655C1CBF0B46024650EAA1
:10429000013406BF52EA033591EA030F41F40021CD
:1042A00030BD00BF90F0000F04BF0021704730B553
:1042B0004FF4806404F132044FF000054FF0000128
:1042C00050E700BF90F0000F04BF0021704730B5E9
:1042D0004FF4806404F1320410F0004548BF4042BE
:1042E0004FF000013EE700BF42004FEAE2014FEA13
:1042F00031014FEA02701FBF12F07F4393F07F4FEE
:1043000081F06051704732F07F4208BF704793F0F0
:104310007F4F04BF41F40021704730B54FF4607403
:1043200001F0004521F000411CE700BF50EA010206
:1043300008BF704730B54FF000050AE050EA0102AF
:1043400008BF704730B511F0004502D5404261EB1F
:1043500041014FF4806404F132045FEA915C3FF460
:10436000D8AE4FF003025FEADC0C18BF03325FEAFD
:10437000DC0C18BF033202EBDC02C2F1200300FAAE
:1043800003FC20FA02F001FA03FE40EA0E0021FAD3
:1043900002F11444BDE600BF70B54FF0FF0C4CF4C1
:1043A000E06C1CEA11541DBF1CEA135594EA0C0F73
:1043B00095EA0C0F00F0DEF82C4481EA030621EAAE
:1043C0004C5123EA4C5350EA013518BF52EA0335E9
:1043D00041F4801143F4801338D0A0FB02CE4FF09B
:1043E0000005E1FB02E506F00042E0FB03E54FF0CB
:1043F0000006E1FB03569CF0000F18BF4EF0010EC3
:10440000A4F1FF04B6F5007F64F5407404D25FEABE
:104410004E0E6D4146EB060642EAC62141EA555171
:104420004FEAC52040EA5E504FEACE2EB4F1FD0CB3
:1044300088BFBCF5E06F1ED8BEF1004F08BF5FEA31
:10444000500E50F1000041EB045170BD06F00046E3
:1044500046EA010140EA020081EA0301B4EB5C0490
:10446000C2BFD4EB0C0541EA045170BD41F4801188
:104470004FF0000E013C00F3AB8014F1360FDEBFAD
:10448000002001F0004170BDC4F10004203C35DA89
:104490000C341BDC04F11404C4F1200500FA05F30C
:1044A00020FA04F001FA05F240EA020001F00042AD
:1044B00021F0004110EBD37021FA04F642EB060123
:1044C0005EEA430E08BF20EAD37070BDC4F10C044D
:1044D000C4F1200500FA04F320FA05F001FA04F211
:1044E00040EA020001F0004110EBD37041F10001FD
:1044F0005EEA430E08BF20EAD37070BDC4F1200508
:1045000000FA05F24EEA020E20FA04F301FA05F26F
:1045100043EA020321FA04F001F0004121FA04F217
:1045200020EA020000EBD3705EEA430E08BF20EAE7
:10453000D37070BD94F0000F0FD101F00046400021
:1045400041EB010111F4801F08BF013CF7D041EAA3
:10455000060195F0000F18BF704703F000465200A7
:1045600043EB030313F4801F08BF013DF7D043EA78
:104570000603704794EA0C0F0CEA135518BF95EA2E
:104580000C0F0CD050EA410618BF52EA4306D1D1B5
:1045900081EA030101F000414FF0000070BD50EAD4
:1045A000410606BF1046194652EA430619D094EA5E
:1045B0000C0F02D150EA013613D195EA0C0F05D148
:1045C00052EA03361CBF104619460AD181EA03019C
:1045D00001F0004141F0FE4141F470014FF0000054
:1045E00070BD41F0FE4141F4780170BD70B54FF0EF
:1045F000FF0C4CF4E06C1CEA11541DBF1CEA13556F
:1046000094EA0C0F95EA0C0F00F0A7F8A4EB050450
:1046100081EA030E52EA03354FEA013100F0888047
:104620004FEA03334FF0805545EA131343EA126310
:104630004FEA022245EA111545EA10654FEA0026C5
:104640000EF000419D4208BF964244F1FD0404F57E
:10465000407402D25B084FEA3202B61A65EB0305DA
:104660005B084FEA32024FF480104FF4002CB6EB97
:10467000020E75EB030E22BFB61A754640EA0C0017
:104680005B084FEA3202B6EB020E75EB030E22BF57
:10469000B61A754640EA5C005B084FEA3202B6EB98
:1046A000020E75EB030E22BFB61A754640EA9C0057
:1046B0005B084FEA3202B6EB020E75EB030E22BF27
:1046C000B61A754640EADC0055EA060E18D04FEAE5
:1046D000051545EA16754FEA06164FEAC30343EA85
:1046E00052734FEAC2025FEA1C1CC0D111F4801F52
:1046F0000BD141EA00014FF000004FF0004CB6E74B
:1047000011F4801F04BF01430020B4F1FD0C88BFE9
:10471000BCF5E06F3FF6AFAEB5EB030C04BFB6EBF4
:10472000020C5FEA500C50F1000041EB045170BDE7
:104730000EF0004E4EEA113114EB5C04C2BFD4EB14
:104740000C0541EA045170BD41F480114FF0000E98
:10475000013C90E645EA060E8DE60CEA135594EA14
:104760000C0F08BF95EA0C0F3FF43BAF94EA0C0F17
:104770000AD150EA01347FF434AF95EA0C0F7FF48C
:1047800025AF104619462CE795EA0C0F06D152EAE0
:1047900003353FF4FDAE1046194622E750EA4106C4
:1047A00018BF52EA43067FF4C5AE50EA41047FF4D5
:1047B0000DAF52EA43057FF4EBAE12E74FF0FF3C3A
:1047C00006E000BF4FF0010C02E000BF4FF0010C0B
:1047D0004DF804CD4FEA410C7FEA6C5C4FEA430C84
:1047E00018BF7FEA6C5C1BD001B050EA410C0CBFD3
:1047F00052EA430C91EA030F02BF90EA020F002035
:10480000704710F1000F91EA030F58BF994208BF9B
:1048100090422CBFD8176FEAE37040F00100704758
:104820004FEA410C7FEA6C5C02D150EA013C07D1AF
:104830004FEA430C7FEA6C5CD6D152EA033CD3D0FA
:104840005DF8040B704700BF8446104662468C46F4
:104850001946634600E000BF01B5FFF7B7FF002827
:1048600048BF10F1000F01BD4DF808EDFFF7F4FF50
:104870000CBF012000205DF808FB00BF4DF808EDDB
:10488000FFF7EAFF34BF012000205DF808FB00BFFE
:104890004DF808EDFFF7E0FF94BF012000205DF820
:1048A00008FB00BF4DF808EDFFF7CEFF94BF0120D5
:1048B00000205DF808FB00BF4DF808EDFFF7C4FFCE
:1048C00034BF012000205DF808FB00BF4FEA410C17
:1048D0007FEA6C5C02D150EA013C0AD14FEA430CFA
:1048E0007FEA6C5C02D152EA033C02D14FF0000037
:1048F00070474FF0010070474FEA410212F5001275
:1049000015D211D56FF47873B3EB625212D94FEA16
:10491000C12343F0004343EA505311F0004F23FA00
:1049200002F018BF404270474FF00000704750EA55
:10493000013005D111F0004008BF6FF00040704712
:104940004FF00000704700BF4A0011D212F500126C
:1049500011D20DD56FF47873B3EB62520ED44FEAD7
:10496000C12343F0004343EA505323FA02F0704757
:104970004FF00000704750EA013002D14FF0FF3095
:1049800070474FF0000070474FEA4102B2F1E04338
:1049900024BFB3F5001CDCF1FE5C0DD901F0004C26
:1049A0004FEAC0024CEA5070B2F1004F40EB830076
:1049B00008BF20F00100704711F0804F21D113F1A2
:1049C0003872BCBF01F00040704741F480114FEADB
:1049D0005252C2F11802C2F1200C10FA0CF320FA64
:1049E00002F018BF40F001004FEAC1234FEAD32381
:1049F00003FA0CFC40EA0C0023FA02F34FEA4303EB
:104A0000CCE77FEA625307D150EA01331EBF4FF073
:104A1000FE4040F44000704701F0004040F0FE408E
:104A200040F40000704700BF10F8012B11F8013B63
:104A3000012A28BF9A42F7D0D01A7047034613F8CC
:104A4000012B002AFBD1181A0138704709480A497E
:104A5000884208B505D0094A824202D0121A04F0F1
:104A6000D3F90748074A0021121A04F0DBF901487C
:104A700008BD00BF30E5032004A60B00A4E5032019
:104A8000A4E50320F0E7032070B5074E074C03F0C0
:104A90002FFFA41BA4080025AC4200D170BD56F81E
:104AA000043B98470135F7E7BCA50B00E0A50B00D8
:104AB00000F022BF08B500F00BFFBDE8084003F08E
:104AC000CFBE02F043BD02F041BD02F047BD000081
:104AD00008B5034A03490C2002F08CFCFEE700BF36
:104AE00065700B00B0900B000078B0FA80F04009C0
:104AF000704701230370704708B502F0BBFA034BFF
:104B00001860BDE8084002F0B1BC00BF28E70320F0
:104B100003682BB14268934202D2184604F06CB984
:104B20000020704738B50568044645B143689D428A
:104B300005D22846FFF782FF013005442560204654
:104B400038BDF8B5044647680D4621B903687A1C9C
:104B50004260D955F8BD0846FFF770FFA368461CB0
:104B6000F2199A42F6D8206832462946384404F0B1
:104B70004BF9606830446060ECE7000038B50446EB
:104B80000B46D0E901012568044A091A284402F0BD
:104B9000F5FC636801300344636038BDC5900B00C9
:104BA00038B504460B46D0E901012568044A091AC4
:104BB000284402F0E3FC636801300344636038BDBD
:104BC000C8900B0008B50021062003F012FF002159
:104BD000072003F00EFFBDE808400021082003F085
:104BE00008BF10B5086804F007F9E8B10424FFF71E
:104BF000E9FF0121082003F0FCFE642002F0F2FC32
:104C0000FFF7E0FF0121072003F0F3FE642002F02C
:104C1000E9FCFFF7D7FF0121062003F0EAFE64203C
:104C200002F0E0FC013CE2D110BD000010B5074CE1
:104C3000204601F095FC0121204601F0D8FA00221F
:104C40004FF00113C4E9042310BD00BF04E60320A4
:104C500010B50F4B0F4C93ED000A0221204603F0D4
:104C600003F80D49204602F005FF204602F009FF37
:104C70000A4B022193ED000A204602F0F5FF204680
:104C8000074902F0F7FE2046BDE8104001F0D6BE0D
:104C9000ACE6032004E60320CC900B00B0E6032032
:104CA000D5900B0010B5084C0849204602F0E2FEF2
:104CB000074B204619680A2202F0EFFE2046BDE8A5
:104CC000104001F0BBBE00BF04E60320E1900B00E2
:104CD00090E6032038B5094C1120256803F0B5FE95
:104CE0008542D4BF25602060054C1120256803F063
:104CF000ACFE8542ACBF2560206038BD34E50320A2
:104D00007CE603202DE9F347132003F08BFE0028F7
:104D100033D01E4B1A7882BB1D4D2C786CBBDFF84C
:104D200080A0DFF880809AF800901A4F01261E704C
:104D30001120B9F1000F11D003F087FE4FF6FF7379
:104D40000093D8F800203968234602F03FFC124B4C
:104D50008AF80040186002B0BDE8F08703F075FEE5
:104D60004FF6FF730093D8F8002039684B4602F0E5
:104D70002DFC0A4B2E701860EDE7132003F052FE55
:104D80000028E8D1014B1870E5E700BF00E60320DA
:104D900074E6032034E5032094E6032078E603203C
:104DA00030E503207CE60320034B1B780BB1FFF7B3
:104DB0004FBFFFF777BF00BFB4E6032008B5054833
:104DC00002F00AF920B1044A137883F0010313704A
:104DD00008BD00BF04E60320B4E6032008B50023A5
:104DE0004377006803F0A2FBBDE8084002F004B975
:104DF0002DE9F0438F188FB0B942CDE9051706466B
:104E00008946904680F0C28005A80D88FFF78AFE8B
:104E10000368BB4280F0BA8005980378412B49D1E2
:104E2000013003F0E9FF052837DDFF2447F2762340
:104E30009D4200F0D38041D847F261239D4200F0AB
:104E4000A88047F264239D426BD046F670539D4282
:104E500041D1784D784EDFF8F4810598B84280F062
:104E600095800378412B4BD1013003F0C5FF052815
:104E700039DDFF2405A8FFF755FEDDF8149029461B
:104E80004846FFF7D1FD014600283DD1204603F0FA
:104E90009FFD05A8FFF746FEDFE70598013003F008
:104EA000ABFF0028C1DB0598013003F0A5FF0E30F1
:104EB000C4B2BBE705A8FFF72BFEF9E747F264731E
:104EC0009D424FD047F276739D4200F0978047F2A3
:104ED00061739D426FD00023CDE90133022200921D
:104EE000728B19463AE00598013003F085FF0028DF
:104EF000BFDB0598013003F07FFF0E30C4B2B9E785
:104F000005A8FFF705FEF9E731464846FFF78CFD97
:104F100028B141464846FFF787FD0028B9D1012155
:104F2000B4E70AAB4549079307A810230025CDE94C
:104F30000853FFF706FE07A82146FFF71FFE20468D
:104F400003F070FD014607A8FFF72AFE089BCDE994
:104F50000155013B0093079B2A461421304600F07F
:104F600093FA13E005A8FFF7DDFD03689F420DD912
:104F7000A4B20121204603F02BFD05A8FFF7C8FDD0
:104F8000011E18BF0121204603F033FD0FB0BDE81C
:104F9000F0830AAB079307A8102329490025CDE920
:104FA0000853FFF7CEFD07A82146FFF7E7FD20468F
:104FB00003F04BFDC6E705A8FFF7B4FD03689F4269
:104FC000E4D9A4B20121204603F002FD05A8FFF7B1
:104FD0009FFD0146204603F04FFDD7E720468DF8A0
:104FE000284002F00BF803460AA823B1154A934261
:104FF00001D09847CAE701F0FDFFC7E705A8FFF712
:1050000091FD059B8DF81C40A3EB0901A8EB010164
:105010002046CDE90A310C9101F0FAFF03460AA9B6
:1050200007A823B1084A934201D09847AEE701F0A0
:10503000E2FFABE7EF900B00F2900B00FA900B0051
:10504000FD900B00F56F0B00F76F0B00F6900B0057
:105050002DE9F0418CB004AF044605220068391DEB
:1050600002F00FFFA8B3052804D000202037BD466A
:10507000BDE8F081B7F8050002F0BCF8A7F805001C
:10508000B7F8070002F0B6F8B7F80530A7F8070040
:105090008046002BE9D03B7923BB01F0A9FF0246F3
:1050A000E060607FB7F80730C0B9B7F80510012994
:1050B00014D1092B0FD0C82B01D0042BD6D1012538
:1050C00062612046657700F08FFAFFF715FD01F069
:1050D00093FF0120CAE703236377C7E7581F18BF70
:1050E0000120C3E7B0F5806F03D92046FFF776FEB5
:1050F000EFE700F1080323F007036E46ADEB030D65
:1051000004AD02462946206802F0BBFE80454FF000
:1051100000007FD1B7F80730E85401F069FF3B7910
:10512000E060142B00F0A68048D80F2B00F0A2807E
:1051300007D8022B48D0062B51D02046FFF74EFE51
:1051400058E0112BF9D100233B70B7F807302B44FE
:105150009D42C7E903534DD207F10C00D5F80080FA
:10516000FFF7E0FCFB68B7F807105D1B4D1BC7E9B4
:1051700005357B68FD61C3F30F236383644B98455A
:1051800000F0BF8000F28C80A3F57F236FF40072E3
:105190001344984500F09D8079D8A3F50033063B71
:1051A000984500F09C8003F50033033398456BD19C
:1051B00007F11401384601F01EFF65E0292B1BD0D2
:1051C000372B17D01D2BB8D1637F43B901236377E9
:1051D000204600F009FAFFF78FFC01F00DFF0023D5
:1051E000C821B7F805200091CDE9013319462046C2
:1051F00000F04AF901200DE0A3681BB9402002F03D
:10520000A5F9A060B7F80780A8444545C7E9055847
:1052100002D30020B54629E729464022A06803F0C2
:1052200037FEA368002583F83F5007F11400FFF70D
:1052300079FC036898451BD9786920B1BB6998420D
:1052400014D203F0DDFD85B2206803F06FF9236806
:10525000A2685A631D870023637701F0C9FEA0F599
:105260009C500838C4E903006061C3E72846EAE7B8
:105270005025E9E77B68B7F80720C3F30F23638362
:1052800029462046FFF7B4FD00236383B2E7214B94
:105290009845F9D107F11401384601F0ACFEF3E767
:1052A0001D4B984521D003F19F6303F5003303F5AF
:1052B000807398451FD003F16E4303F5302303F547
:1052C00086739845E0D107F11401384601F093FE4A
:1052D000DAE707F11401384601F08DFED4E707F153
:1052E0001401384601F087FECEE707F11401384675
:1052F00001F081FEC8E707F11401384601F07BFE9A
:10530000C2E707F11401384601F075FEBCE700BFA3
:10531000766673006462670061636F6E2DE9F04129
:1053200004468CB00D46FFF7E7FB637F022B1ED0CF
:10533000237F628B0133DBB22377AAB9022B13D808
:10534000206802F0BBFFA8B125B9206803F094F8EB
:1053500000280FDD2046FFF77BFE0028F5D12068EE
:1053600003F0E4F801F048FE237F013B23770CB003
:10537000BDE8F08101F03CFE0546206802F09EFF8A
:10538000677F012F064624D120B965612046FFF7CB
:1053900025FDE9E7E3684FF21862EB1A9342F5D86E
:1053A0004AF6C872934203D82369EB1A9342DBD9B9
:1053B000636941F27072EB1A9342D5D90023CDE9AB
:1053C000013300931A460621204600F05DF865611E
:1053D000CAE7002FC8D16369EB1A40B141F270727D
:1053E0009342C1D9206803F0A1F86777BCE741F286
:1053F00088329342B8D9206803F098F8D4F800C0F6
:10540000DCF834E0BCF83880BEF1000F1BD0334626
:1054100042467146604602F0D3FE0128D7D1636848
:105420000593012518462583FFF708FB0022CDE9E7
:105430000122059B00902A461D21204600F024F8F9
:105440002369636190E7084B06930CF120070FCFA7
:1054500007AE0FC63B6833704246734606A96046E6
:1054600002F08EFFD9E700BFB8A10B0008B50448D1
:1054700001F099FDBDE8084002480021FFF74EBF4A
:1054800004E60320A4E503202DE9F04F83B000AF2C
:10549000044600683D6B884616469946EB4602F086
:1054A0000DFF002800F08180B8F11D0F04D84D4B8E
:1054B00023FA08F3DB0702D4637F012B75D146B9C9
:1054C000668B36B9238B01339BB2002B72D02383BA
:1054D000268BA8F10C03082B16D8D4E9032393429A
:1054E00038BF134603F1420A01F082FDAAEB000027
:1054F000002861DB00212046FFF710FF01F078FD56
:10550000AAEB00000028F5DAB9F1000F5BD06B1DA3
:105510007A6B002ABA6B08BF002203EB020A0AF179
:10552000070323F00703ADEB030D30468DF8008031
:10553000C7F804D001F066FEBB6BADF80100E818B7
:1055400080B201F05FFEADF80300B9F1000F3CD06E
:10555000002D3AD02A4649460DF1050003F054FCCF
:10556000681D7B6B3BB1BB6B2BB11A467B68796BBB
:10557000184403F049FC002555452AD2AAEB050240
:105580007B682068B2F5806F28BF4FF4806259199C
:1055900002F047FD0646002001F028FDBEB9206854
:1055A00002F0C4FF667701F027FD0C37DD46BD46EB
:1055B000BDE8F08F01238AE7217F0029A4D120468E
:1055C000FFF7ACFEA0E70523A2E70520C9E73544B5
:1055D000D2E703D02046FFF701FCE6E701F008FD23
:1055E0002061E2E74500002030B599B008AB0446E1
:1055F00005930025402305A80B49CDE90653FFF785
:10560000A0FA05A80949FFF79CFA069B0293059B9F
:105610000193652300932A46054B11212046FFF78D
:1056200033FF19B030BD00BF00910B0005910B0096
:10563000A9910B0070B5ADF5846D164608AB00243A
:105640000546059305A84FF48063CDE90643FFF7AF
:1056500078FA316805A8FFF774FA069B013B0093BE
:10566000CDE90144059B224640212846FFF70CFF67
:105670000DF5846D70BD000008B51F4B1B789BB104
:105680001E4B1F4A1B681268934218D2FFF79AFA02
:105690000121082003F0ADF91A491B4802F05EFC15
:1056A0001A49184802F069FC1649174802F08CFCA8
:1056B00020B9144A16491748FFF7BCFF08BD164A1F
:1056C000126893420BD2FFF77DFA0121072003F005
:1056D00090F90C490C4802F041FC1049E1E7FFF752
:1056E00071FA0121062003F084F90649064802F008
:1056F00035FC0B49D5E700BF74E6032090E6032094
:1057000094E6032080E6032098E6032013910B0023
:105710005C910B00A4E5032078E603202A910B009E
:1057200044910B002DE9F041ADF5846D08AB0024E8
:1057300005460E46059305A84FF48063154910EE03
:10574000108ACDE90643FFF7FCF905A83146FFF7BB
:1057500015FADDE90661059B40468F1B1E44FEF7E6
:10576000C3FD0D4ACDE900013946304601F006FF80
:10577000431C069803440693013B0093CDE9014482
:10578000059B224614212846FFF77EFE0DF5846D09
:10579000BDE8F08163910B0066910B0070B5ADF52B
:1057A000856D002405920AAA05460E46079207A8B1
:1057B0004FF480621149CDE90842FFF7C2F9314642
:1057C00007A8FFF7DBF9DDE90801079E059B0C4AF6
:1057D000091A304401F0D2FE431C08980344089390
:1057E000013B0093CDE90144079B22461421284642
:1057F000FFF74AFE0DF5856D70BD00BF63910B008C
:105800006C910B000000000070B5122003F01DF930
:10581000FEF758FD2AA3D3E90023FEF7E7FE2AA3EB
:10582000D3E90023FEF7B8FD1B4B1C4E1C4D1D4C4D
:105830000022FEF7F9FB1C4B0022FEF7ADFDFFF73F
:10584000A3F83060FEF750FD184B0022FEF7A4FDD0
:10585000174B0022FEF7CAFE164B0022FEF7E6FBAE
:10586000FFF792F82860144801F015FA96ED000A47
:10587000206006211148FFF755FF95ED000A0F48FB
:105880000721FFF74FFF22680C480221FFF786FF30
:1058900070BD00BFAFF300800000E03FACE6032026
:1058A000B0E6032090E603200000594000002240AB
:1058B0000000144000004040A8E60320A4E50320B7
:1058C0000000000000FEAF406666666666660A403D
:1058D00008B5FFF7CBFDFFF7FDF9FFF795FFFFF7E1
:1058E000A5F9FFF761FAFFF70DFAFFF767FABDE8D0
:1058F0000840FFF7C1BE0000F8B50021122003F0F8
:1059000067F80021132003F063F80021112003F051
:105910005FF80121082003F05BF80121072003F064
:1059200057F80121062003F053F8214C40F6B83017
:1059300001F05CFB1F4B636001F05AFBA0F59C502B
:1059400023681D4A5A630838C4E903005022606185
:105950001A87002644F24F67206802F0E7FD667759
:1059600001F046FB0546637F012B0CD001F040FBA4
:10597000401BB84204D800212046FFF7CFFCF2E7D5
:10598000637F012BE8D10D4801F0E4FAFFF74EF9EF
:1059900003F0B4F801F0BEFE03F0B0F80146084889
:1059A00001F064FABDE8F840054801F0F2B900BF23
:1059B000A4E503206F910B0090910B0004E60320F7
:1059C000A8E6032010B5144C0021012001F032FD9F
:1059D000204602F0F5FD04F11C0001F015FF0F4A0E
:1059E0000F480023C2E90043C2E90233C2E904338D
:1059F000936193836363238701F013F907210948B7
:105A000001F07AFA0849094802F094FABDE810401A
:105A10000549074802F08EBAC4E50320A4E5032037
:105A2000A8E6032004E603209C910B0098E60320DF
:105A300080E603202DE9F04F85B01F46BDF9388080
:105A4000BDF83C30A8EB0209A7EB010AB9F1000F41
:105A5000B8BFC9F10009BAF1000FB8BFCAF1000A16
:105A6000D14583460C46154604DD3A462C4647464A
:105A70000D469046BC4205DD2A46454690462246E4
:105A80003C4617463E1BB2B20092A8EB050282EAE2
:105A9000E271A1EBE271C6F3C03202FA86F6454527
:105AA000B4BF01224FF0FF32019176100292BC4246
:105AB0001CDCDBF800200393D145D2F81880C7BF67
:105AC000294622462A4621465846C047019A039B4A
:105AD000B61AB1B236B2002E05DA029A1544009A0F
:105AE00056182DB236B2013424B2E0E705B0BDE855
:105AF000F08F704710B404682469A4465DF8044B25
:105B0000604730B40468BDF808500295A46BA44601
:105B100030BC604730B40468BDF808500295E46BAF
:105B2000A44630BC604770B4BDF90C50BDF810609D
:105B30000468CDE90356246CA44670BC60472DE987
:105B4000F3411C460368BDF820805B690546164694
:105B5000013C34440F4624B298472B68CDF80480AA
:105B600000949C6A28463B4632463946A0472B683B
:105B7000DB6A284602B0BDE8F04118472DE9F34141
:105B80001D460368BDF820805B69044617460E4633
:105B90009847CDE9007822686B1E3344956A204609
:105BA0001BB23A463146A8472368DB6A204602B05A
:105BB000BDE8F04118472DE9F3471E460368BDF9DB
:105BC00028905B69BDF82C800C460546174698471F
:105BD0002644B4422B680BDACDF80080D3F820A01D
:105BE00021464B463A4628460134D04724B2F0E7D6
:105BF000DB6A284602B0BDE8F047184713B50268D3
:105C00000191B0F90E100091146CB0F90C30002223
:105C10001146A04702B010BD2DE9F7439942164640
:105C2000BDF92870BDF82C90026880460D461C46D0
:105C300013D1BE42C8BF3346CDF82890C4BF3E46FC
:105C40001F467B1C946B9B1B1BB232462946404669
:105C5000A44603B0BDE8F0436047BE420AD1994272
:105C6000C2BF0B4625461C46631CCDF82890D46B5A
:105C70005B1BE9E753699847CDE90079D8F8003014
:105C800040469F6A324623462946B847D8F8003036
:105C9000DB6A404603B0BDE8F04318472DE9F347FF
:105CA0001D460368BDF82C805B69BDF92890044649
:105CB0000F46164698472368CDF80080D3F824A0F5
:105CC00032462B4639462046D0472368CDF800801F
:105CD00009F1FF323244D3F824A039462B4620463E
:105CE00012B2D0472368CDF80080D3F820A0324606
:105CF0004B4639462046D0476B1ED9192368CDF84C
:105D000000801D6A20464B46324609B2A8472368E8
:105D1000DB6A204602B0BDE8F0471847704701F043
:105D20000303B0F90A208376C907B0F9083059BFD8
:105D30008381C2818281C3817047000030B5428176
:105D4000C281074A074D0181002481814FF0FF3154
:105D5000C0E905124460056004610477046230BD47
:105D60000101000118970B002DE9F04F89B0CDE932
:105D700002120268BDF948800493BDF94C305269A3
:105D80000593BDF850A00446904718F107024FF064
:105D9000000648BF08F10E024FEAE20B01963546B5
:105DA000039B019ABDF904109A18059B8B4212B20D
:105DB00027DD049B33444FF0000906930FFA89F066
:105DC00080451FFA89F117DD4F0705BF069BC010FC
:105DD0006D001D5C18BFEDB22B060AD5029B206832
:105DE00007921944836909B21F4620465346B847B3
:105DF000079A09F10109E1E7019B013301935E4430
:105E0000CEE72368DB6A204609B0BDE8F04F1847AB
:105E10002DE9F04F2DED028B91B01646026ABDF8C8
:105E200074809DF878509DF87C4003911F46BDF822
:105E3000703004938346002A40F0C580B0F90C30DE
:105E40008B4240F34C81B0F90E30B34240F34781AE
:105E5000062313FB0513002B40F3418106EBC4031B
:105E6000002B40F33C81037F1BB9AF2F84BF013768
:105E7000FFB2DBF8003058465B699847052209926B
:105E800000220592984A07EB8703D3180C93B3B20C
:105E90000693059A0C9B9B5C0793ABB20B93BDF8E2
:105EA0000C300893039B02FB05F919FA83F90FFAEA
:105EB00089F308EE103A08230A93039B02EB030AC6
:105EC0004FF000090FFA8AFA079ADBF80030D20780
:105ED00052D5012D1FFA89F23ED1012C3CD19B698C
:105EE00006991F46049B0A4412B251465846B847C9
:105EF00009F101034FFA83F9079B5B0807930A9B9B
:105F0000013B13F0FF030A93DED1059F01377BB2FB
:105F10000593099B013B13F0FF030993B9D1049B3F
:105F200043450FD0012DDBF800303BD1012C39D196
:105F30000899CDF8008005311C6A3246082309B261
:105F40005846A047DBF80030DB6A584611B0BDEC7C
:105F5000028BBDE8F04F1847069914FB02F20A4481
:105F6000049901910094DB6918EE101A1F4612B2D1
:105F70002B465846B847BBE7049A4245B8D0012D96
:105F80001FFA89F207D1012C05D19B6906991F469A
:105F90000A444346A8E70699CDF8048014FB02F2B0
:105FA0000A44DFE70B9ACDF8048002EB8201089ADD
:105FB000E4000A4411460094DC6932462B4609B2DB
:105FC0005846A047BEE7137A516812680B92FF1A31
:105FD000FFB201EBC70331F8372006929A78099295
:105FE000DA780C92012D93F9052093F906A00A9214
:105FF00001D8012C57D9BDF9283008930FFA8AF33C
:106000000793DBF8003058465B699847B3B24FF00E
:1060100000080E931AFA86F3C14647460F930C9B6D
:106020009F428FD2079B0E9A3B4403FB042300221E
:1060300005920F9A1BB202EB070A08EE103A0FFA0C
:106040008AFA4346099A0599914241D25A1CD2B222
:106050005B070D9207D1069B06990B9A01339BB201
:1060600012F80190069319F0800F12D0012DDBF881
:106070000030BDF80C101AD1012C18D10A9A9B6976
:106080001144059A11441E465246049B09B25846D3
:10609000B047059E0136F3B24FEA490905935FFA0E
:1060A00089F90D9BCEE70023CDE90733A9E70598D1
:1060B000089A024402FB0511049ACDE90042DB690B
:1060C00018EE102A1E4609B22B465846B047E0E7A4
:1060D000099B013798445FFA88F8FFB29FE711B037
:1060E000BDEC028BBDE8F08F10920B00F0B5026A98
:1060F00085B004460B46002A34D10A2908D1438AC8
:106100000282427E03EBC2036382012005B0F0BD30
:106110000D29FAD0E17E007E657E71B1B4F9106080
:10612000062111FB0061B4F90C60B142C1BFB4F9A2
:106130001210228201EBC5026282E28A0192A28AD7
:106140000092CDE90205B4F91220B4F910102046EE
:10615000FFF75EFE237E228A03EB430302EB430339
:106160002382D2E70A2907D100230382417E927A53
:10617000438A01FB0233C7E70D29C6D0157AA9422D
:10618000C3D3517A9942C0D351685D1BEDB201EB84
:10619000C505A87828B3E97819B3E17E267E677E25
:1061A00091B195F905100844B4F9101006FB0011DF
:1061B000B4F90C00814207DD00202082B4F91210EE
:1061C000927A02FB07126282E28A0192A28A00920C
:1061D000CDE90267B4F91220B4F910102046FFF798
:1061E00017FE2979227E238A01FB0233B8E70129B1
:1061F00038BF0121017641767047704710B51021F4
:106200000446FEF762FC204610BD0EB403B503AB96
:10621000002153F8042B019301F035FD02B05DF825
:1062200004EB03B07047000073B5044608462279BA
:10623000A36832B1A3B90B4902B0BDE8704001F0C8
:1062400019BC094A267B094D0949647B012E18BFF8
:106250002946CDE900140749FFF7D7FF02B070BD0A
:10626000054AEFE779970B00EE900B0075970B004E
:1062700071970B008F970B0068970B0010B5044BBC
:1062800003600446C06A08B101F068F9204610BDF9
:10629000689C0B0010B50446FFF7F0FF2046502124
:1062A000FEF713FC204610BD002910B54BDBB0F9FA
:1062B0000C408C4247DD002A45DBB0F90E40944289
:1062C00041DD847E022C1FD0032C26D0012C04D16A
:1062D0000489D24314440A4621B2012B23D0022B55
:1062E00032D083BB002A13460489C06AB8BFD31DCD
:1062F000DB1013FB041102F0070201239340425C00
:1063000022EA030242541EE00489013C611A4489D6
:10631000D243224409B212B2DFE74489013C641A35
:10632000114622B2D9E7002A04891346B8BFD31D0B
:10633000DB1013FB0411C36A02F007000122824044
:10634000585C02435A5410BD002A13460489C06A9F
:10635000B8BFD31DDB1013FB041102F007020123A9
:1063600003FA02F2435C5A40CCE7000070B50446E1
:106370001D460026FFF7E2FC114B2360666215B94B
:1063800002F0BCFB0546FF2384F8333084F8363036
:106390009DF9103084F837300A4BA363012384F849
:1063A0003C30059BA3644FF6FF72069BA286C4E9AE
:1063B0000A562664A4F84460E364204670BD00BF1A
:1063C000689C0B00B4970B00F8B50446806A0D4634
:1063D00090B194F9301001F0D3F9A06A036800215C
:1063E0009B689847A06A036829469B689847A06AFB
:1063F000BDE8F84001F0CBB994F93530014698B2C8
:1064000002F0F7FA606A20B12946BDE8F84001F0D1
:106410001DBD0826802794F9330005EA070180B2E4
:1064200002F0E7FA94F93400012180B202F0E1FAB7
:1064300094F93400002180B202F0DBFA013E4FEA09
:106440005707E8D1F8BD38B50446806A0D4680B1DB
:10645000A16C01F05BF9002D204614BFA721A621F5
:10646000FFF7B2FFA06A88B1E16CBDE8384001F0E7
:106470004DB9606A18B104F1380101F079FC94F962
:106480003600002180B202F0B4FAE4E794F9360055
:10649000012180B202F0ADFA606A18B1BDE838405F
:1064A00001F04CBC38BD2DE9F8430446806A0D4626
:1064B0008F1840B394F9301001F062F9A06A0368B4
:1064C00000219B6898470126AF42A06A17D01F2E73
:1064D0000CD901F05CF994F93010A06A01F050F980
:1064E000A06A036800219B6898470126A06A15F8F6
:1064F000011B036801369B689847F6B2E4E7BDE8E4
:10650000F84301F044B994F93530014698B202F0ED
:1065100070FABD4222D0606A15F8019B18B1494655
:1065200001F094FCF5E708264FF0800894F9330059
:1065300009EA080180B202F05CFA94F93400012102
:1065400080B202F056FA94F93400002180B202F0D1
:1065500050FA013E4FEA5808E8D1DAE7BDE8F8837F
:10656000B0F90A30DA1D48BF03F10E02B0F9083065
:10657000C06AD2105A43002102F054BC2DE9FF41F9
:106580001E46C36A9DF8288004460F461546C3B1CF
:106590002046FFF7E5FFB4F90A00B4F908102028F7
:1065A00021DC202301222038CDE9013200EBD0701C
:1065B00073237339009301EBD171894B40F34F0280
:1065C00021E0B0F90A30D81D48BF03F10E00B4F93C
:1065D0000830C010584300F0B9FFE0620028D7D15E
:1065E00004B0BDE8F0814038C0F3C03202FA80F256
:1065F00040230120CDE90130522352390093794BD9
:1066000001EBD1715210204641F34F01FFF7ACFB73
:10661000A06A84F83170002878D0002D74D1B4F9C4
:106620000A30202B0CBF3C253D2584F83050B8F1B2
:10663000000F01D001F06EF8FEB194F93700002888
:106640001BDB012180B202F0C3F994F9370001216C
:1066500080B202F0CEF9012000F0C4FF94F93700B7
:10666000002180B202F0C5F90A2000F0BBFF94F9C6
:106670003700012180B202F0BCF9A06A002874D072
:10668000A16C01F043F8042257492046FFF70BFFA5
:1066900061890139C9B22046FFF796FE53490422A9
:1066A0002046FFF700FF94F93130012B0CBF102179
:1066B00014212046FFF788FE04224D492046FFF7AB
:1066C000F2FEA3684B4A93425CD14B490422204618
:1066D000FFF7E9FED9212046FFF776FE94F9313025
:1066E000012B0CBF2221F1212046FFF76DFE204631
:1066F00042490622FFF7D7FEA06A002863D0E16C6A
:1067000001F004F801206BE76DB28EE794F93500D3
:10671000012180B202F05CF994F93600012180B2C7
:1067200002F056F994F93600012180B202F061F9C5
:10673000656A3DB1B8F1000F3FF47EAF284601F025
:10674000E9FA79E794F93300012180B202F040F9C7
:1067500094F93400012180B202F03AF994F934003E
:10676000294680B202F045F966E7606A18B104F183
:10677000380101F0FDFA94F93600002180B202F0F0
:1067800038F980E71E4A93420ED11E490322204663
:10679000FFF789FE94F93130012B0CBF9F21CF21E7
:1067A0002046FFF711FE95E7174A934292D1174909
:1067B00003222046FFF777FE94F93130012B0CBFFE
:1067C0001021AF21ECE794F93600012180B202F0EC
:1067D00010F9606A002895D001F0B0FA92E700BF86
:1067E000809A0B00C0970B00C89C0B00CC9C0B0040
:1067F000D09C0B0080002000DA9C0B00D49C0B0086
:1068000080004000DE9C0B0060001000E19C0B004B
:1068100070B5002ABDF810503DDBB0F90A40944233
:1068200039DD0029BEBF5B181BB20021B0F908405A
:10683000CE18A642C4BF631A1BB2002B2BDDC06A60
:10684000D61014FB0611014402F007000122824019
:10685000012DD2B216D0022D0BD0E5B9D243D2B25F
:106860000B44994217D011F8010B104001F8010CAC
:10687000F7E70B4499420ED011F8010B504001F894
:10688000010CF7E70B44994205D011F8010B1043B6
:1068900001F8010CF7E770BDF0B50029BDF8145000
:1068A00076DBB0F90860B14272DA002ABEBF9B18ED
:1068B0001BB20022B0F90A40D718A742C4BFA31ADE
:1068C0001BB2002B64DDC2F3C404C76A16FB0416B6
:1068D00012F00702DBB207EB060423D0C2F1080274
:1068E000D2B22D4993423CBF4FF0FF0CA2EB030EF6
:1068F000895C3CBF4CFA0EFC0CEA0101012D07D06B
:10690000022D2ED04DB917F806C02CEA010103E084
:1069100017F806C041EA0C01B955934238D3B0F9D3
:1069200008100C449A1AD2B2072A0ED9022D1DD192
:1069300013462178C9432170083BB0F90810DBB237
:10694000072B0C44F5D802F007020AB3134B012DB4
:106950009B5C1AD0022D1CD0D5B9227822EA030301
:1069600015E017F806C081EA0C01D5E7291E18BF0B
:1069700001214942C9B213462170083BB0F90860B1
:10698000DBB2072B3444F7D8DDE7227813432370BA
:10699000F0BD22785340FAE7B89C0B00C09C0B0076
:1069A00070B41446827EBDF80C60022A0DD0032A12
:1069B00018D0012A11D10289E443144424B2039669
:1069C0000A46214670BCFFF767BF42890589E44348
:1069D00019441444691A24B209B20396224670BCC1
:1069E000FFF716BF45891944691A09B2E7E730B4C1
:1069F0001446827EBDF80850022A0DD0032A18D012
:106A0000012A11D1E2180489A41A24B202950A4677
:106A1000214630BCFFF7FCBE0289C9431144E2188D
:106A20004489A41A09B224B20295224630BCFFF769
:106A300033BF4289C943114409B2E7E72DE9F8435E
:106A40000446806A002842D0A16C00F05FFE4749EE
:106A500005222046FFF727FD218901392046C9B2CA
:106A6000FFF7B2FCB4F90A30DE1D48BF03F10E0691
:106A7000D4E90A052389F61013FB06F615FA86F603
:106A800000283AD094F9301000F07AFEA06A03682A
:106A900040219B6898470127B542A06A24D01F2F48
:106AA0000CD900F074FE94F93010A06A00F068FE72
:106AB000A06A036840219B6898470127A06A15F8DF
:106AC000011B036801379B689847FFB2E4E7606ADF
:106AD00018B104F1380101F04BF994F936000021A6
:106AE00080B201F086FFB2E700F051FEA06A78B3F1
:106AF000E16CBDE8F84300F009BE94F935000121CE
:106B000080B201F076FFAE42F0D0606A15F8019BCA
:106B100018B1494601F09AF9F5E708274FF08008C7
:106B200094F9330009EA080180B201F062FF94F998
:106B30003400012180B201F05CFF94F9340000219F
:106B400080B201F056FF013F4FEA5808E8D1DAE77A
:106B500094F93600012180B201F04BFF606A18B150
:106B6000BDE8F84301F0EAB8BDE8F883E49C0B0007
:106B700000210A22C0E900127047002310B5044624
:106B8000C171837188B201F04DFF08B10323A37175
:106B900000F070FA206010BD38B50C46054611466D
:106BA000A0B201F015FF21462846BDE83840FFF7A6
:106BB000E4BF38B50446C07901F034FFA579003848
:106BC00025F0080318BF0120C5F340058542A371D5
:106BD0000AD000F04FFAA379206083F00203A3717A
:106BE000A079C0F3C00038BD00F044FA2368C01A91
:106BF000A3889842F4D3A37903F00103AB42EFD00A
:106C000000F038FAA379206083F0010343F0080311
:106C1000E5E7807900F00900A0F1080358425841E7
:106C20007047704710B504466021006800F0A4FD6D
:106C3000206800F0ACFDB0FA80F0400910BD38B516
:106C400005460C460068602100F096FD2868036840
:106C500021469B6898472868002100F094FD08B100
:106C6000002038BD28680222602100F082FD2868DB
:106C700003681B6998470028F2D0286803685B699D
:106C800098470446286803685B699847E4B244EA79
:106C9000002080B2E5E70921FFF7D1BF0C21FFF703
:106CA000CEBF70B504460E4600686021154600F060
:106CB00063FD2068036831469B6898472068036835
:106CC000E9B29B68984720680368290A9B6898473F
:106CD000206800F05CFDB0FA80F0400970BD70B52E
:106CE00004460D461646FFF7AAFF00F47F4040EA2F
:106CF000060229462046BDE87040FFF7D2BF70B5B6
:106D000004460D461646FFF79AFFC0B240EA062237
:106D100029462046BDE87040FFF7C3BF08B5FFF71E
:106D20008EFFC0F3072008BD2DE9F04104469DF811
:106D300018700D46984616466AB1FFF780FFC0B23C
:106D400000EA080343EA07022946204636B1BDE8B7
:106D5000F041FFF7C4BFFFF7E1FFF1E7BDE8F04105
:106D6000FFF7CDBFB1F5A07F07B50ED29F290ED892
:106D70004F298CBF40230023009301223F2303218E
:106D8000FFF7D2FF03B05DF804FBC023F4E78023D4
:106D9000F2E707B500210091FE230122FFF7C4FFAF
:106DA00003B05DF804FB072907B50FD803290FD8F6
:106DB00010D002290CBF0423002300930122F123E9
:106DC0000321FFF7B1FF03B05DF804FB0E23F4E7E6
:106DD0000C23F2E70823F0E707B500230093012214
:106DE000FE230321FFF7A0FF03B05DF804FB07B506
:106DF0000F298CBF0823002300930022F7230321CF
:106E0000FFF792FF03B05DF804FB07B50223009380
:106E10000122EF230421FFF787FF03B05DF804FB95
:106E2000C72907B516D8B32916D89F2916D88B2994
:106E300016D8772916D8632916D84A2994BF002175
:106E400001210091F82300220421FFF76DFF03B018
:106E50005DF804FB0721F4E70621F2E70521F0E7DE
:106E60000421EEE70321ECE70221EAE738B5044606
:106E70000846216000F04EFC2046FFF7D3FE054691
:106E800010B90025284638BD2046FFF707FFB0F5AA
:106E9000C37FF6D12046C821FFF7C2FF2046282134
:106EA000FFF760FF20460821FFF77DFF10212046F5
:106EB000FFF79DFF2046FFF7A8FF2046FFF78CFF56
:106EC000E0E7000010B5064B03600446006D08B112
:106ED00000F0B0F82046FFF7D1F9204610BD00BF02
:106EE000F49C0B0010B50446FFF7ECFF2046702120
:106EF000FDF7EBFD204610BD30B585B004460D46CC
:106F000001F0FCFD104A1149CDE901214FF0FF329B
:106F100080210346009220462022FFF727FA0C4BDF
:106F200023600023C4E9143504F15800FFF720FE64
:106F300004F16000FFF71CFE04F16800FFF718FE83
:106F4000204605B030BD00BF801A0600A0860100B3
:106F5000F49C0B0013B50446503000F063F8636DE9
:106F6000D90705D50222042104F15800FFF714FEC9
:106F7000636D9A0705D50022032104F16000FFF735
:106F80000BFE636D5B0705D50222114604F1680014
:106F9000FFF702FE012300933C2202212046FFF767
:106FA000EDFA02B010BD10B5436DD907044602D505
:106FB0005830FFF7FEFD636D9A0703D504F16000BA
:106FC000FFF7F7FD636D5B0705D504F16800BDE8C9
:106FD0001040FFF7EEBD10BD436D024613F00100F7
:106FE00003D002F15800FFF714BE704700F0FABA60
:106FF00000F040B8704770477047000003065ABF62
:10700000024B53F820000020704700BF449D0B0046
:1070100003065ABF024B53F820000020704700BF00
:10702000449F0B0008B5024B1B681B6B019308BD06
:107030004802030008B5024B1B685B6B019308BD57
:107040004802030008B5024B1B685B6C019308BD46
:107050004802030008B5024B1B685B68019308BD3A
:107060001802030008B5024B1B68DB68019308BDDA
:107070001802030008B5024B1B685B69019308BD49
:107080001802030008B5024B1B685B68019308BD3A
:107090002C02030008B5024B1B689B68019308BDD6
:1070A0002C02030008B5024B1B68DB68019308BD86
:1070B0002C02030008B5024B1B681B69019308BD35
:1070C0002C02030008B5024B1B685B69019308BDE5
:1070D0002C02030008B5024B1B689B6A019308BD94
:1070E0002C02030008B5024B1B681B6B019308BD03
:1070F0002C02030008B5024B1B689B6F019308BD6F
:107100002C02030008B5024B1B681B68019308BDE5
:107110002802030008B5024B1B68DB68019308BD19
:107120002802030008B5024B1B689B69019308BD48
:107130002802030008B5024B1B68DB69019308BDF8
:107140002802030008B5024B1B681B6A019308BDA7
:107150002802030008B5024B1B685B6A019308BD57
:107160002802030008B5024B1B689B6A019308BD07
:107170002802030008B5024B1B68DB6A019308BDB7
:107180002802030008B5024B1B681B6B019308BD66
:107190002802030008B5024B1B685B6B019308BD16
:1071A0002802030008B5024B1B681B6C019308BD45
:1071B0002802030008B5024B1B681B6D019308BD34
:1071C0002802030008B5024B1B685B69019308BDE8
:1071D0006C02030008B5024B1B685B69019308BD94
:1071E0006402030008B5024B1B681B6A019308BDCB
:1071F0006402030008B5024B1B685B6A019308BD7B
:107200006402030008B5024B1B689B6A019308BD2A
:107210006402030008B5024B1B689B68019308BD1C
:107220006802030008B5024B1B68DB68019308BDC8
:107230006802030008B5024B1B689B69019308BDF7
:107240003802030008B5024B1B68DB69019308BDD7
:107250003802030008B5024B1B681B6A019308BD86
:107260003802030008B5024B1B689B6A019308BDF6
:107270003802030008B5024B1B681B6B019308BD65
:107280003802030008B5024B1B689B6B019308BDD5
:107290003802030008B5024B1B681B68019308BD48
:1072A0003002030008B5024B1B685B69019308BDFF
:1072B0003002030008B5024B1B68DB69019308BD6F
:1072C0003002030008B5024B1B681B6A019308BD1E
:1072D0003002030008B5024B1B685B6A019308BDCE
:1072E0003002030008B5024B1B68DB6B019308BD3D
:1072F0003002030008B5024B1B681B6C019308BDEC
:107300003002030008B5024B1B685B6C019308BD9B
:107310003002030008B5024B1B68DB68019308BD0F
:107320003C02030008B5024B1B681B69019308BDB2
:107330003C02030008B5024B1B685B69019308BD62
:107340003C02030008B5024B1B689B69019308BD12
:107350003C02030008B5024B1B68DB69019308BDC2
:107360003C02030008B5024B1B681B6A019308BD71
:107370003C02030008B5024B1B689B6A019308BDE1
:107380003C02030008B5024B1B681B6C019308BD4F
:107390003C02030008B5024B1B681B68019308BD43
:1073A0004C02030008B5024B1B681B69019308BD22
:1073B0004C02030008B5024B1B685B69019308BDD2
:1073C0004C02030008B5024B1B689B69019308BD82
:1073D0004C02030008B5024B1B68DB69019308BD32
:1073E0004C02030008B5024B1B681B6A019308BDE1
:1073F0004C02030008B5024B1B685B6B019308BD90
:107400006002030008B5024B1B681B6D019308BDA9
:107410006002030008B5024B1B685B68019308BD5E
:107420002002030008B5024B1B685B69019308BD8D
:107430002002030008B5024B1B68DB6A019308BDFC
:107440002002030008B5034B1B68D3F88830019372
:1074500008BD00002002030008B5034B1B68D3F8E9
:107460009430019308BD00002002030008B5024BD0
:107470001B689B68019308BD4402030008B5024BDA
:107480001B68DB6B019308BD4402030008B5024B87
:107490001B685B68019308BD4002030008B5024BFE
:1074A0001B689B68019308BD4002030008B5024BAE
:1074B0001B68DB68019308BD4002030008B5024B5E
:1074C0001B681B69019308BD4002030008B5024B0D
:1074D0001B685B69019308BD4002030008B5024BBD
:1074E0001B689B69019308BD4002030008B5024B6D
:1074F0001B68DB69019308BD4002030008B5024B1D
:107500001B681B6A019308BD4002030008B5024BCB
:107510001B681B6B019308BD4002030008B5024BBA
:107520001B685B6B019308BD4002030008B5024B6A
:107530001B681B6C019308BD4002030008B5024B99
:107540001B685B6C019308BD4002030008B5024B49
:107550001B681B68019308BD1C02030008B5024BA1
:107560001B685B68019308BD1C02030008B5024B51
:107570001B689B68019308BD1C02030008B5024B01
:107580001B68DB69019308BD1C02030008B5024BB0
:107590001B685B6A019308BD1C02030008B5024B1F
:1075A0001B68DB6B019308BD1C02030008B5024B8E
:1075B0001B681B6C019308BD1C02030008B5024B3D
:1075C0001B685B6C019308BD1C0203008A4210B566
:1075D00007D0441A0298C01A4443501A94FBF0F0A2
:1075E000184410BD0021FFF71DBF00000248002312
:1075F0000360FFF727BD00BFC4E6032000224068F8
:107600001146FFF77BBF002240681146FFF786BF97
:1076100040680022FFF77ABF4068002281F0010134
:10762000FFF764BF002340681A461946FFF756BFAC
:10763000002340681A461946FFF748BF00224068F9
:107640001146FFF73BBF002240681146FFF726BFF7
:10765000406800220221FFF729BF002340681A4634
:10766000FFF714BF024B03225A60024A1A607047A8
:10767000C8E6032054A10B007047F8B5064615462E
:107680000C468F18BC4206D0336814F8011B9B6867
:1076900030469847F6E72846F8BD007C0022FFF701
:1076A00051BD007C0021FFF755BD007C0021FFF794
:1076B00059BD007C0021FFF75DBD007C0021FFF774
:1076C00061BD10B514210446FDF7FFF9204610BD39
:1076D00038B5044615464FF47A730022C4E90123F5
:1076E000094B2174084623602946FFF75BFDBF3034
:1076F00008D16B69DB0705D56868FFF72FFFE868DD
:10770000FFF72CFF204638BD90A10B00007C002223
:10771000FFF7F8BC0023007C1A461946FFF7FABCB5
:107720007FB500221423CDE90122ADF804300B7897
:107730008DF808304B680393CB680493007C0B7A78
:10774000059301A9FFF736FD07B05DF804FB1FB5EF
:10775000003B8DF800104FF06401039118BF012326
:10776000694601928DF80830FFF7DAFF05B05DF841
:1077700004FB0123FFF7EBBF007C0022FFF7D2BC24
:10778000C9B2FFF7F9BF007C0022FFF7D3BC01218B
:10779000FFF7F9BF704710B518210446FDF795F9BA
:1077A000204610BDF0B5037D062B8DB00E4600F1CE
:1077B00004074FF0000412D000F1080515F8011D70
:1077C0000A22304600F069F9AF42044419D0002C77
:1077D000F4D02E21304600F051F90444EEE72F2377
:1077E0006A4639460A208DF80040FFF7F3FC6846E8
:1077F000FDF724F933680246DB686946304698474E
:10780000044620460DB0F0BD10B5054B04461122CC
:1078100040F8043B002101F005FB204610BD00BFED
:10782000B8A10B000346074A10B543F8042B01F139
:10783000100251F8044B43F8044B9142F9D10A78F5
:107840001A7010BDB8A10B00037D042B04D1406851
:10785000003818BF01207047062B07D143683BB999
:1078600083682BB9C3681BB90069F1E70020704732
:107870000120704710B59DF8084044EA032343EA0D
:10788000024242EA016104234160037510BD000019
:1078900007B5064B0360CB7800938B784A7809785C
:1078A000FFF7E8FF03B05DF804FB00BFB8A10B00D1
:1078B000014B024A1A607047D0E60320C4A10B00B6
:1078C000002340681A46FFF7E1BD4068002202210C
:1078D000FFF7ECBD002240681146FFF7DFBD002234
:1078E00040681146FFF7EABD002340681A46194672
:1078F000FFF7ECBD002340681A461946FFF7EEBDBE
:1079000040680021FFF712BE40680021FFF716BE55
:107910004068002281F00101FFF7E8BD40680022C5
:10792000FFF7F4BD002240681146FFF7F7BD0022C3
:1079300040681146FFF7E2BD2DE9F04395B01446CB
:107940000D460746FFF760FF00211C220DA800919D
:1079500001F068FA40230C9320466B460CAA0021E4
:10796000FFF760FC044600284BD1024601216868FD
:10797000FFF7A4FD0221804622466868FFF79EFDBE
:10798000009E81462146002E3BD0002939D17368E4
:10799000022B03D00A2B11D0F669F4E7B8F1000FDF
:1079A000FAD0716906A8043107ADFFF771FF0FCD5A
:1079B0003C1D0FC42B6823704146EDE7B9F1000F61
:1079C000EAD07469102201A801F02CFA06238DF880
:1079D000143001AD04F108031834186859682A46B8
:1079E00003C20833A3421546F7D101A906A807AD83
:1079F000FFF718FF0FCD3C1D0FC42B6823704946BD
:107A0000CAE70098FFF706FC384615B0BDE8F083DA
:107A1000024B034A1A6000225A607047D4E60320E2
:107A2000D0A10B00F8B506460D468F180024BD42C4
:107A30000CD0336815F8011B9B6830469847031E2D
:107A400001DB1C44F3E7002C08BF1C462046F8BDB0
:107A500013B50446084659B10191FCF7EFFF2368BE
:107A60000199DB680246204602B0BDE81040184785
:107A700002B010BD08B5FFF7EBFF08BD03689B68B7
:107A8000184738B50D210546FFF7F8FF0A210446CF
:107A90002846FFF7F3FF204438BD30B58BB00023F4
:107AA000012A8DF8243098BF0A2209AC0D46B1FB9B
:107AB000F2F101FB125303F0FF03092B94BF3033A3
:107AC0003733DBB2AA4204F8013DEFD92146FFF774
:107AD000BFFF0BB030BD00002DE9F74F55EC104B48
:107AE00006460F4610EE102A10EE100A2B462946C5
:107AF000FCF7ECFE40B153493046FFF7A9FF824640
:107B0000504603B0BDE8F08F25F000494E4B4FF0D2
:107B1000FF3220464946FCF7D9FE48B94A4B4FF0A0
:107B2000FF3220464946FCF7B3FE08B94749E3E770
:107B3000474B4FF0604220462946FCF7BDFE08B196
:107B40004449D9E7444B4FF0604220462946FCF7B0
:107B500095FE0028F4D10022002320462946FCF798
:107B60008DFED0B12D213046FFF788FF05F100438F
:107B700082461D463949DFF8EC904FF0000B00209B
:107B80004FF000085FFA8BF39F4208D942464B46FC
:107B9000FCF72CFD0BF1010BF4E78246EAE72246E5
:107BA0002B46FCF743FA0D460446FCF7CDFE804613
:107BB000FCF778FB02460B4620462946FCF734FAD0
:107BC0000A2204460D4630464146FFF766FF8244CE
:107BD000002F95D02249DFF88C903046FFF738FF10
:107BE0004FF000088244002F8AD042464B46204680
:107BF0002946FCF7D1FB04460D46FCF77DFEB0F1AB
:107C0000000B1CDA2D213046FFF738FFCBF10001C5
:107C100003460A2230460193FFF73FFF019B1844B9
:107C200082445846FCF74EFB02460B462046294646
:107C3000FCF7FAF9013F04460D46FFB2D3E7594677
:107C40000023E6E704A20B00FFFFEF7F08A20B0072
:107C5000FFFFEF410CA20B00FFFFEFC10000E03F70
:107C600010A20B000000244038B5044610EE100AA4
:107C7000CDB2FCF739FB41EC100B29462046BDE89C
:107C80003840FFF729BF2DE9F04186B000AF054627
:107C90000E46381D142114463B60FFF777FC13286D
:107CA0000ED8391D2846FFF7D3FE04461EB12846DC
:107CB000FFF7E7FE044420461837BD46BDE8F081D3
:107CC00000F1080323F00703E846ADEB030D22465D
:107CD000411C3B686846FFF759FC69462846FFF798
:107CE000B7FE0446C546E1E7014B00229A607047A3
:107CF000DCE603200021FFF705BB0021FFF7FABAFD
:107D000010B5044608462170FFF7D4FA00236360DB
:107D1000204610BD13B504460078FFF7EEFF58B9B2
:107D2000207801904FF6FF71FFF7B4FA019802B086
:107D3000BDE81040FFF7DEBF02B010BD0078FFF7CE
:107D4000D9BF0000400830B5186000241868884288
:107D5000E5B206D90134082C02D040081860F5E7D6
:107D60000725024B5B5D137030BD00BF12A20B00F4
:107D70002DE9F04306468FB000780C46FFF7BDFFB3
:107D800000281BDB35781422002109A801F04AF8ED
:107D90000B23002209A92846ADF82430FFF79AFAF0
:107DA0009DF82D3013B19DF82C5055B10027B946E0
:107DB000B846012523795DB1C3B100200FB0BDE8FD
:107DC000F083DDF830809DF834909DF83570F1E750
:107DD000002B35D1A368434508D18DF820908DF84C
:107DE0002170BDF82020A3899A42E6D00023A16823
:107DF0008DF80F300A9804AB0DF10F02FFF7A2FFC8
:107E0000217985B989B9A36843450ED38DF82090AF
:107E10008DF82170BDF82020A3899A4205D1049BDA
:107E2000434502D1C9E70029F9D100230193637BBF
:107E300000939DF80F20237B3078FFF753FABCE7BF
:107E4000CDE900552B462A460121F5E708B5007813
:107E5000FFF728FAC0B208BD10B50446FFF70AF9CB
:107E6000E060236820465B699847002808DAFFF73E
:107E700001F9E368C01AA3689842F2D34FF0FF30CB
:107E800010BD2DE9F04107460C468E180D46B5424F
:107E9000A5EB040807D03846FFF7DEFF031E02DB20
:107EA00005F8013BF3E74046BDE8F08110B5044614
:107EB000006808B1FFF752FB0023C4E901332360D7
:107EC00010BD38B504460D4600680131FFF74EFB82
:107ED00010B1C4E90005012038BD10B5036804469F
:107EE00023B143688B4201D3012010BD2046FFF728
:107EF000E8FF0028F9D0A368002BF5D122681370A1
:107F0000F2E737B50D46114601920446FFF7E5FF4B
:107F1000019A28B92046FFF7C9FF204603B030BDBB
:107F2000A2602946206800F06FFF2268A368002144
:107F3000D154F2E7002313B5C0E90033044683604F
:107F4000037341B108460191FCF778FD019902469F
:107F50002046FFF7D6FF204602B010BD884210B57C
:107F6000044605D00B682BB18A681946FFF7C9FF94
:107F7000204610BDFFF79AFFFAE713B5044659B142
:107F800008460191FCF75AFD019902462046FFF789
:107F9000B8FF204602B010BDFFF788FFF9E702687E
:107FA0000B46096862B141B9806860B110787047CA
:107FB000986840B10978484270471046FCF734BDD4
:107FC0000029F5D10846704708B582688B689A4247
:107FD00005D1FFF7E4FFB0FA80F0400908BD0020AA
:107FE000FCE70000054B02221A60054B054A9A6027
:107FF0000020C3E90000FFF70DBA00BFF8E6032038
:10800000ECE603200000FFFF13B503688DF80710AE
:10801000DC6B01224FF0FF330DF10701A04702B0E6
:1080200010BD10B40368DC6B4FF0FF33A4465DF85D
:10803000044B604713B5134602688DF80710D46BE4
:108040000DF107010122A04702B010BD10B5436930
:10805000B3F88620B3F884309A42044608D06369A6
:10806000B3F88420511CA3F884101344187910BD70
:1080700003681B6998470028F1D14FF0FF30F6E7FD
:10808000704743691868C043C00F704770470000CD
:10809000064B994210B500F10C0405D0084600F0DB
:1080A00093FD002808BF0024204610BD44A10B000A
:1080B00010B5AC210446FCF708FD204610BDAC21EC
:1080C000FCF703BD2DE9F0414FF0000886B01C46D7
:1080D000C0F8048005460E4617464146102202A805
:1080E00000F0A0FE631C09D04FF47A73B4FBF3F2E6
:1080F00003FB1244CDE902285C4304946869102311
:108100000093006802AB41F2050240F6FF71FFF7F1
:1081100091F8002807DAFFF741FA03686B60002046
:1081200006B0BDE8F0816869002300683A46314630
:10813000FFF7A0F8031EEEDB1846F1E738B58469B7
:108140000A4B036005467CB16368013B63605BB921
:10815000236820469B689847A368013BA3601BB92E
:1081600023682046DB689847284638BD58A20B0094
:1081700010B50446FFF7E2FF20461C21FCF7A5FCE2
:10818000204610BD30B587B0044601AD6846FFF704
:108190007FFB0FCD04340FC42B68237007B030BDB4
:1081A00070B54D69054B04468C3544F8043B0646D2
:1081B0000FCD0FC42B682370304670BDB8A10B00E3
:1081C0002DE9F0439846036893B00D460024DB6A1E
:1081D00006461746984728466B4622462146009495
:1081E000FFF720F80546002863D1009B002B4BD0F9
:1081F0005B69002B48D006A8FFF706FB009B5C6973
:108200006378022B04D1211D06A8FFF7BBFF26E0EF
:108210000A2B24D11122294601A800F003FEA368ED
:10822000002B38D004F108030DF1040C1834186841
:108230005968624603C20833A3429446F7D1062325
:1082400001A90CA88DF81430FFF7ECFA0DF1340CED
:10825000BCE80F0007AC0FC4DCF80030237006A8A0
:10826000FFF7F2FA80B1336807ADD3F82090124BD4
:108270000C930FCD0DAC0FC42B6823703A464346C8
:108280000CA93046C84705460098FEF7C3FF2846AC
:1082900013B0BDE8F083E368002BC3D14FF6FF7045
:1082A000D4F81090FEF79EFF8145BBD104F1140174
:1082B000AAE72546E8E700BFB8A10B0038B5436937
:1082C0001A68002A054610DAB3F88620B3F884301D
:1082D0009A420AD103681B699847044628B92B685B
:1082E0002846DB6A9847204638BD0120FCE710B5D8
:1082F0004369B3F88620B3F884309A42044605D027
:108300006369B3F884201344187910BD03681B69AE
:1083100098470028F4D14FF0FF30F6E7F8B54369ED
:108320001746B3F88620B3F884309A4205460E46C5
:1083300016D06969B1F88430B1F88640E41ABC42BD
:1083400028BF3C46043322461944304600F05CFD09
:108350006A69B2F884302344A2F884302046F8BD1C
:1083600003681B6998470028E3D14FF0FF34F5E715
:1083700042690023A2F884304269A2F8863070472F
:108380002DE9F0411F4603680C46DB6A8AB00546BA
:1083900016469847237DD5F81480042B0CBF022085
:1083A0000A2006220121FEF76DFFC8F800006B6964
:1083B0001B68002B08DA2B682846DB6A00249847E4
:1083C00020460AB0BDE8F0812846FFF7D1FFB7B1DB
:1083D000002303A9F8B20393ADF81030FEF7F2FEC4
:1083E0000028E8D1686906230093006803AB41F2D6
:1083F0000B0240F6FF71FEF71DFF0028DBD11C22A7
:10840000002103A800F00EFD237D042B1DD14FF4A5
:1084100007733046ADF80C30FEF7F4FEADF80E00F1
:108420006068FEF7DFFE04906B691C22186803A9E0
:10843000FEF710FF0028BED104340FCC6D698C35D7
:108440000FC523682B700124BAE740F61C23304681
:10845000ADF80C30FEF7D6FE05AEADF80E00231DCC
:1084600004F1140718685968324603C20833BB4246
:108470001646F7D1D8E7000030B54269B2F8863029
:108480008BB004462BB1B2F884209A4201D1FFF799
:108490006FFF61690868002818DBB1F886507F2DEE
:1084A00014D804310823C5F180022944FEF7DAFE0E
:1084B000002813DD6369B3F886200AB9A3F8842085
:1084C0006369B3F886201044A3F886006369B3F8A3
:1084D0008600B3F88430C01A0BB030BDFFF75EF8E9
:1084E00003680B2BF2D0FFF759F803680B2BEDD084
:1084F00020230025CDE90235FFF750F803680193EA
:10850000084B0949009302AA2B463220FEF77AFF56
:1085100063691868FEF796FE63694FF0FF321A60D0
:10852000D4E700BF21A20B001AA20B0010B54369CB
:1085300004461868002801DBFEF784FE63694FF0EB
:10854000FF321A606069112200218C3000F06AFC51
:108550002046BDE81040FFF70BBF10B500230446CE
:108560000160C0F884308830FFF74EF9204610BD16
:1085700073B500234FF47A72C0E901320E4A0361E9
:10858000026043610446AC200191FCF79AFA051E93
:1085900005F10C0608D00123C5E90133074B019909
:1085A0002B603046FFF7D9FF2046C4E90565FFF789
:1085B000DFFE02B070BD00BF58A20B003CA20B0052
:1085C00010B54FF0FF310446FFF7D2FF204610BD33
:1085D00010B504460068002801DBFEF733FE204694
:1085E00010BD0C30FFF7F4BF024B1A68024B1A6043
:1085F000704700BF38E50320FCE603207047417454
:10860000704708B5007CFEF7B5FE20EAE07008BDB3
:1086100008B5007CFEF786FE20EAE07008BD08B5CC
:10862000007CFEF78FFE40EAE07008BD08B5007CD4
:10863000FEF780FE40EAE07008BD007CFEF78ABECF
:1086400037B5457C04462DB1207C03B0BDE83040F1
:10865000FEF760BE007C0191FEF78CFE00280199B8
:10866000F2DC284603B030BD10B514210446FCF7F7
:108670002CFA204610BD000010B54FF47A73044662
:10868000084611460022C4E90123044B236001235C
:1086900020746374FEF776FE204610BDC0A20B0066
:1086A000417470477047704708B50021007CFEF7A1
:1086B00089FE40EAE07008BD08B50121007CFEF7A4
:1086C00081FE40EAE07008BD08B5007CFEF772FE4E
:1086D00020EAE07008BD08B5007CFEF763FE20EAE2
:1086E000E07008BD13B50446007C0191FEF762FE00
:1086F0000028019901DC607C20B1207CFEF76AFE35
:1087000020EAE07002B010BD007CFEF76BBE10B531
:1087100014210446FCF7D9F9204610BD10B54FF4DA
:108720007A73044608460021C4E90113044B236010
:108730000123207463741146FEF72CFE204610BD01
:10874000F0A20B0010B514220446002100F06AFBD1
:10875000204610BD10B50F4C88B003A8FFF7F2FFFC
:108760002178BFF35B8F11F001010FD120460191F9
:10877000FCF7BAF9019948B103AA0748FFF7CEFF01
:108780002046FCF7B6F9054800F030FB024808B077
:1087900010BD00BF00E7032004E70320A5860B00FF
:1087A000002240681146FEF789BE0022406811464B
:1087B000FEF7A4BE002240681146FEF7AFBE406837
:1087C0000022FEF7A3BE4068002281F00101FEF7FF
:1087D0008DBE002340681A461946FEF77FBE00236F
:1087E00040681A461946FEF771BE002240681146DD
:1087F000FEF754BE406800220221FEF757BE002358
:1088000040681A46FEF742BE024B04225A60024AF2
:108810001A60704718E7032020A30B00014B186073
:10882000704700BF3CE5032008B50B4B43B1FFF791
:1088300091FF03681B699847002801DDAFF30080B2
:10884000064B43B100F09AF903681B69984700286A
:1088500001DDAFF3008008BD000000000000000053
:1088600008B5FFF7E1FFFEF705FC014B186008BDF6
:1088700028E703200548064A064908B5121A00F001
:10888000C3FA054B054A1A6008BD00BF00F4032077
:1088900004F4032078A60B0000F403201E1C279A82
:1088A00007B5002300931A466FF07701FEF7D4FD59
:1088B00003B05DF804FB000007B543880A2B08D01D
:1088C000502B0BD1094B1B684BB103B05DF804EB87
:1088D0001847FFF7E5FF03B05DF804FB00230093A2
:1088E0001A466FF07701FEF7B7FDF4E724E703209F
:1088F00010B512480021FEF761FE114B1A68114BAA
:108900009A42114B0CBF012200221A7001D0FFF7CE
:10891000B1FFFEF79FFB044600F08CFA0B4B13B13E
:108920002046AFF3008000210848FEF7A7FDBDE810
:10893000104007480021FEF785BD00BF1D880B00D1
:1089400000F403201E1C279A20E7032000000000EB
:10895000B9880B00232813B502D9002002B010BD3E
:10896000A0F10B03022B1AD8174C2178BFF35B8FB1
:1089700011F001010BD120460191FCF7B5F80199E6
:1089800028B11248FFF7BCF92046FCF7B2F80F4BAC
:108990001878FEF797FC0028DFD10120DEE70128D8
:1089A00009D800F0ABF80021007CFEF7F3FB80F063
:1089B0000100C0B2D2E709380128EED800F0DEF895
:1089C000007CFEF7CFFCF2E7B8E60320BCE603200C
:1089D000232838B504460D460AD8FF2908D0FFF7EA
:1089E000B9FF28B129462046BDE83840FEF752BB02
:1089F00038BD38B504460D46FEF754FBFF2810D0AD
:108A0000062804D84D2323FA00F0C30709D42046D2
:108A1000FFF7A0FF28B129462046BDE83840FEF701
:108A200049BB38BD10B50446FEF73CFB031FDBB263
:108A3000012B08D92046FFF78DFF20B12046BDE865
:108A40001040FEF73FBB002010BD0D2810B50446B6
:108A50009CBF0E34A4B22046FFF77CFF50B1032127
:108A60002046FEF70FFB032804D12046BDE8104046
:108A7000FEF738BB002010BD38B504460D46FFF7A1
:108A800069FFF0B104212046FEF7FCFA042805D165
:108A9000A9B22046BDE83840FEF71CBB02212046A3
:108AA000FEF7F0FA02280CD12046FEF7FBFA012867
:108AB00001D0042805D129462046BDE83840FEF7FC
:108AC00019BB38BD7047000038B50A4B036001235D
:108AD000044643610849202000F074F820256060B6
:108AE0000549A560284600F06DF8C4E90305204655
:108AF00038BD00BF1800010054A30B0030B50E4D67
:108B00002978BFF35B8F11F0010487B011D128469B
:108B1000FBF7EAFF68B16846FFF7D6FF6A462146D1
:108B20000648FEF7D5FD2846FBF7E3FF044800F0B2
:108B30005DF9024807B030BD2CE7032030E7032081
:108B4000C58A0B007047000038B5044614252A4634
:108B5000002100F067F92580402507492581284636
:108B6000258200F02FF804496060284600F02AF8BA
:108B7000E060204638BD00BF54A30B0030B50E4D59
:108B80002978BFF35B8F11F0010487B011D128461B
:108B9000FBF7AAFF68B101A8FFF7D6FF01AA21469B
:108BA0000648FFF769FD2846FBF7A3FF044800F0DD
:108BB0001DF9024807B030BD44E7032048E7032011
:108BC000458B0B00FBF77FBF014900F0F9B800BFF0
:108BD00070A30B007FB500241023CDE90234036895
:108BE00015469E6912686B46CDE90044B0479DF872
:108BF000043003F00603062B03BF009B2B6001200B
:108C0000204604B070BD0098904214BF0120062099
:108C10007047000010B5034B0360044600F0CDF828
:108C2000204610BDB0A30B0010B50446FFF7F2FFBD
:108C300020460821FBF749FF204610BD2DE9F041F1
:108C40001F46DDE90834DDF81880984506461546CC
:108C500007D1079900F0B4F818B165710020BDE89C
:108C6000F0813946304600F0ABF80028F6D00123F9
:108C7000C4F800802571A371F0E738B515461C468D
:108C800000F09EF820B10823E360062325602371DD
:108C900038BD73B505460C4601921E4600F090F8AB
:108CA00050B9032E08D82368019A5B6929462046EB
:108CB00002B0BDE87040184702B070BD10B5034B5C
:108CC00003600446FFF7A6FF204610BD10A40B006A
:108CD00010B50446FFF7F2FF20460C21FBF7F5FE26
:108CE000204610BDF7B5089F974205460E4614462C
:108CF0000AD0A86802680897156A31462246AC4631
:108D000003B0BDE8F04060471946019300F058F801
:108D1000019B0028EDD0062003B0F0BD2DE9F14FF6
:108D20000D461946DDE90A4BDDE90CA681461746DA
:108D3000984600F045F890B1002D3460377109DB9A
:108D400061198A450CBF06210121B171002001B0D3
:108D5000BDE8F08F0235F9D10123B371F6E7544530
:108D600006D15946484600F02BF808B17771EDE777
:108D7000D9F808000368CDE90CA6CDE90A4BDC69F7
:108D80003A4643462946A44601B0BDE8F04F604745
:108D90002DE9F04107460C4615461E46FFF76DFFCC
:108DA00048B9B86803689F692A4633462146BC46DD
:108DB000BDE8F0416047BDE8F08170470020704792
:108DC000814208B50ED0406803782A2B0CD0496840
:108DD0000B782A2B08BF0131FBF726FEB0FA80F092
:108DE000400908BD0120FCE70020FAE70023014606
:108DF0001A46184600F0ECB80A22002100F0DEB84E
:108E00000A22002100F0DAB80A44914200F1FF334F
:108E100000D1704710B511F8014B03F8014F914292
:108E2000F9D110BD02440346934200D1704703F8C4
:108E3000011BF9E738B5104B1D68AB6B0446B3B99D
:108E40001820FEF783FB0246A86320B90B4B0C48A1
:108E50004221FEF7ABFB0B490B4BC0E900130B4B58
:108E600083600B23838100210120C2E90401AB6BE5
:108E700000221C615A6138BD3CE5032049A40B0067
:108E800060A40B000E33CDAB34126DE6ECDE0500B2
:108E900010B50139034632B111F8014F03F8014B07
:108EA000013A002CF7D11A440021934200D110BDA1
:108EB00003F8011BF9E70000012B2DE9F04701D071
:108EC000242B06D9FEF76AFB162303600020BDE8B9
:108ED000F087DFF8E4C00D462E4615F8014B14F874
:108EE0000C7017F00807F7D12D2C32D12C78012700
:108EF000B51C002B5BD0102B09D1302C07D12C785E
:108F000004F0DF04582C4DD16C781023023507F1A2
:108F1000004808F1FF384FF0000CB8FBF3F9664643
:108F200003FB198AA4F1300EBEF1090F16D874465E
:108F3000A34224DDBCF1000F1EDBB1451CD301D1DF
:108F4000A24519DB06FB03464FF0010C15F8014B57
:108F5000E8E72B2C04BF2C78B51CCAE7A4F1410E1E
:108F6000BEF1190F01D8373CE2E7A4F1610EBEF162
:108F7000190F04D8573CDBE74FF0FF3CE6E7BCF1A4
:108F8000000F05DA22230360464642B930469EE7C9
:108F900007B17642002AF9D0BCF1000F00D0691E5B
:108FA0001160F3E73024002BB1D10823AFE7302C58
:108FB000A5D00A23ABE700BFBAA40B0013460A46AC
:108FC000014602480068FFF777BF00BF3CE5032079
:108FD0002DE9F843DFF8B8800646D8F800001F46B0
:108FE0000D46914600F056F8254B1C6834B9254CC7
:108FF0001C60254B13B11B68C4F8883063681F2BB5
:1090000007DDD8F8000000F047F84FF0FF30BDE86A
:10901000F8834EB3D4F8880088B91C4B23B9D8F82C
:10902000000000F038F8F0E74FF48470FEF78EFA95
:109030000028F4D00023C0E94033C4F888006368F6
:1090400040F8239001229A4000EB8301D0F80031D0
:109050001343C0F80031022EC1F8807002BFD0F86F
:1090600004311343C0F804316368D8F800005A1C77
:109070000233626044F8235000F00EF80020C6E787
:10908000E8E703205CE70320000000004D750B00BB
:10909000A0E5032070477047704700004D4A0B0061
:1090A000894A0B00B14A0B00B54A0B0000000000D2
:1090B00043616C6C206F6E207075726520766972EA
:1090C0007475616C00256900256C69002043656C2E
:1090D00073697573002046616872656E68656974AE
:1090E000004C69676874204C6576656C3A200069AD
:1090F0006E006F75740070776D00647700617700A3
:10910000746D706C00544D504C325475346B644D1A
:109110004C63004C69676874206C6576656C2069E7
:1091200073206E6F77206C6F77004C6967687420CE
:109130006C6576656C206973206E6F77206D656451
:1091400069756D006C69676874206C6576656C2064
:109150006973206E6F772068696768006E6F746945
:1091600066790076770025322E3366002575007308
:109170003962725370484B5847624A4B2D50674CC6
:10918000466F714273694E4D74322D384C4F430017
:10919000626C796E6B2E636C6F7564006D656F77B2
:1091A00000626C6E6B696E660076657200312E31FE
:1091B0002E3000682D62656174003435006275667A
:1091C000662D696E0031303234006465760050617E
:1091D000727469636C65204172676F6E0066772DEB
:1091E0007479706500544D504C325475346B644D35
:1091F0004C63006275696C64004A756C20203220F3
:10920000323032332031353A32373A3538000000C7
:1092100000000000003E5B4F5B3E3E6B4F6B3E1C10
:109220003E7C3E1C183C7E3C181C577D571C1C5E27
:109230007F5E1C00183C1800FFE7C3E7FF001824FE
:109240001800FFE7DBE7FF30483A060E26297929A8
:1092500026407F050507407F05253F5A3CE73C5ADD
:109260007F3E1C1C08081C1C3E7F14227F22145FBA
:109270005F005F5F06097F017F006689956A606015
:1092800060606094A2FFA29408047E040810207E0F
:10929000201008082A1C08081C2A08081E10101094
:1092A000100C1E0C1E0C30383E3830060E3E0E06DA
:1092B000000000000000005F00000007000700142D
:1092C0007F147F14242A7F2A1223130864623649EC
:1092D0005620500008070300001C224100004122D4
:1092E0001C002A1C7F1C2A08083E080800807030D9
:1092F0000008080808080000606000201008040248
:109300003E5149453E00427F40007249494946214D
:1093100041494D331814127F1027454545393C4AC1
:1093200049493141211109073649494936464949D8
:10933000291E000014000000403400000008142220
:10934000411414141414004122140802015909068E
:109350003E415D594E7C1211127C7F494949363E8F
:10936000414141227F4141413E7F494949417F0975
:109370000909013E414151737F0808087F00417F80
:1093800041002040413F017F081422417F4040407E
:10939000407F021C027F7F0408107F3E4141413E16
:1093A0007F090909063E4151215E7F091929462698
:1093B0004949493203017F01033F4040403F1F209C
:1093C00040201F3F4038403F631408146303047873
:1093D00004036159494D43007F4141410204081093
:1093E00020004141417F04020102044040404040CE
:1093F000000307080020545478407F28444438383C
:1094000044444428384444287F38545454180008AD
:109410007E090218A4A49C787F0804047800447D87
:1094200040002040403D007F1028440000417F4024
:10943000007C047804787C08040478384444443878
:10944000FC1824241818242418FC7C080404084858
:109450005454542404043F44243C4040207C1C20A9
:1094600040201C3C4030403C44281028444C909004
:10947000907C4464544C440008364100000077005E
:1094800000004136080002010204023C2623263C6B
:109490001EA1A161123A4040207A385454555921F6
:1094A00055557941225454784221555478402054DE
:1094B0005579400C1E52721239555555593954542C
:1094C000545939555454580000457C410002457D9B
:1094D000420001457C407D1211127DF0282528F0C4
:1094E0007C545545002054547C547C0A097F4932F1
:1094F000494949323A4444443A324A4848303A4168
:1095000041217A3A42402078009DA0A07D3D424210
:10951000423D3D4040403D3C24FF2424487E494399
:10952000662B2FFC2F2BFF0929F620C0887E09030C
:1095300020545479410000447D413048484A323833
:109540004040227A007A0A0A727D0D19317D26295F
:10955000292F28262929292630484D402038080857
:10956000080808080808382F10C8ACBA2F1028348B
:10957000FA00007B000008142A142222142A14087E
:109580005500550055AA55AA55AAFF55FF55FF008D
:109590000000FF00101010FF00141414FF00101042
:1095A000FF00FF1010F010F0141414FC001414F756
:1095B00000FF0000FF00FF1414F404FC1414171043
:1095C0001F10101F101F1414141F00101010F00093
:1095D0000000001F101010101F10101010F01000CD
:1095E0000000FF101010101010101010FF100000DD
:1095F00000FF140000FF00FF00001F10170000FC18
:1096000004F414141710171414F404F40000FF00E9
:10961000F714141414141414F700F7141414171472
:1096200010101F101F141414F4141010F010F00078
:10963000001F101F0000001F14000000FC14000099
:10964000F010F01010FF10FF141414FF141010107D
:109650001F00000000F010FFFFFFFFFFF0F0F0F030
:10966000F0FFFFFF0000000000FFFF0F0F0F0F0FC4
:109670003844443844FC4A4A4A347E020206060210
:109680007E027E0263554941633844443C04407E77
:10969000201E2006027E020299A5E7A5991C2A49F0
:1096A0002A1C4C7201724C304A4D4D30304878487B
:1096B00030BC625A463D3E494949007E0101017E67
:1096C0002A2A2A2A2A44445F444440514A444040BA
:1096D000444A51400000FF0103E080FF00000808F9
:1096E0006B6B083612362436060F090F0600001879
:1096F000180000001010003040FF0101001F0101A0
:109700001E00191D1712003C3C3C3C0000000000EC
:109710000000000000000000000000000000000049
:10972000ED600B00257A0B00D14A0B00F35A0B00B9
:10973000F55A0B00275B0B00035B0B00155B0B005E
:10974000355A0B00F35A0B001F5D0B001D5D0B001B
:109750003F5B0B007D5B0B00B75B0B00FD5B0B0001
:10976000195C0B009D5C0B0064656661756C742070
:10977000004D5342004C5342003C535049536574D2
:1097800074696E67732064656661756C743E003C35
:1097900053504953657474696E677320257325753A
:1097A000202573204D4F444525753E0000000000E4
:1097B0000000000029620B00FB610B00FD610B0043
:1097C0000000000000018000000000000000000018
:1097D000038000000000000000000007C00000003F
:1097E00000000000000007C00000000000000000B2
:1097F000000FC00000000000000000001FE000009B
:10980000000000000000001FE00000000000000059
:1098100000003FE00000000000000000003FF000FA
:1098200000000000000000007FF0000000000000C9
:10983000001FF87FF0000000000000003FFE7FF0F6
:10984000000000000000003FFF7FF000000000006B
:1098500000001FFFFBE0000000000000000FFFF908
:10986000FFC00000000000000FFFF9FFF80000003B
:1098700000000007FFF1FFFF00000000000003FCF4
:1098800073FFFF80000000000001FE3FFFFF80002B
:109890000000000000FF1E0FFF000000000000009D
:1098A0007FFE1FFC000000000000003FFFFFF800EB
:1098B0000000000000000FDFFFE0000000000000DB
:1098C000001F19FFC0000000000000003F3CFF0027
:1098D000000000000000007E7CF800000000000096
:1098E00000007FFE7C0000000000000000FFFFFC85
:1098F0000000000000000000FFFFFE00000000006C
:10990000000000FFFFFE0000000000000001FFEF6C
:10991000FE0000000000000001FFCFFE000000007C
:1099200000000003FF07FE0000000000000003FC31
:1099300007FE0000000000000003F003FE0000002E
:1099400000000000018000FE000000000000000098
:1099500000007E000000000000000000003E00004B
:1099600000000000000000000C00000000000007E4
:109970008000FC000003C0000000078001FC000024
:1099800003C0000000078001FC000003C0000000CD
:10999000078001E00000001E000000078001E000D9
:1099A00000001E007FE3F79FF9FDE7787BDFC0FF33
:1099B000F7FFBFFDFDFF787BDFC0FFF7FFBFFDFDB9
:1099C000FF787BDFC0F0F787BC3DE1FF787BDE00EE
:1099D000F0F787BC3DE1F0787BDE0000F787803D43
:1099E000E1E0787BDE007FF7879FFDE1E0787BDEBA
:1099F00000FFF787BFFDE1E0787BDE00F0F787BC72
:109A00003DE1E0787BDE00F0F787BC3DE1E0787B6C
:109A1000DE00F0F787BC3DE1E0787BDE00FFF7FF7A
:109A2000BFFDE1E07FFBDFC0FFF7FFBFFDE1E07FAF
:109A3000FBDFC07CF3F39F3DE1E03E7BCFC0000045
:109A4000000000000000000000FFFFFFFFFFFFFF1D
:109A5000FFFFFFC0FFFFFFFFFD68DB111A31C0FFF2
:109A6000FFFFFFFD2B5AFB6AEFC0FFFFFFFFFD4B1F
:109A70005B3B1A33C0FFFFFFFFFD6B5BDB6AFDC082
:109A80000000600000000000000000000000000076
:109A900000E00000000000000000000000000001E5
:109AA000E00000000000000000000000000001F0E5
:109AB0000000000000000000000000000003F000B3
:109AC00000000000000000000000000007F000009F
:109AD000000000000000000000000007F800000087
